{
  "contractName": "BidContract",
  "abi": [
    {
      "inputs": [
        {
          "internalType": "address",
          "name": "_tenderAddress",
          "type": "address"
        },
        {
          "internalType": "string",
          "name": "_title",
          "type": "string"
        },
        {
          "internalType": "string",
          "name": "_description",
          "type": "string"
        },
        {
          "internalType": "uint256",
          "name": "_amount",
          "type": "uint256"
        },
        {
          "internalType": "string",
          "name": "_status",
          "type": "string"
        }
      ],
      "name": "placeBid",
      "outputs": [],
      "stateMutability": "nonpayable",
      "type": "function"
    },
    {
      "inputs": [],
      "name": "getBids",
      "outputs": [
        {
          "components": [
            {
              "internalType": "address",
              "name": "tenderAddress",
              "type": "address"
            },
            {
              "internalType": "string",
              "name": "title",
              "type": "string"
            },
            {
              "internalType": "string",
              "name": "description",
              "type": "string"
            },
            {
              "internalType": "uint256",
              "name": "amount",
              "type": "uint256"
            },
            {
              "internalType": "string",
              "name": "status",
              "type": "string"
            },
            {
              "internalType": "address",
              "name": "bidderAddress",
              "type": "address"
            }
          ],
          "internalType": "struct BidContract.Bid[]",
          "name": "",
          "type": "tuple[]"
        }
      ],
      "stateMutability": "view",
      "type": "function",
      "constant": true
    },
    {
      "inputs": [
        {
          "internalType": "uint256",
          "name": "_index",
          "type": "uint256"
        },
        {
          "internalType": "address",
          "name": "_tenderAddress",
          "type": "address"
        },
        {
          "internalType": "string",
          "name": "_title",
          "type": "string"
        },
        {
          "internalType": "string",
          "name": "_description",
          "type": "string"
        },
        {
          "internalType": "uint256",
          "name": "_amount",
          "type": "uint256"
        },
        {
          "internalType": "string",
          "name": "_status",
          "type": "string"
        }
      ],
      "name": "updateBid",
      "outputs": [],
      "stateMutability": "nonpayable",
      "type": "function"
    },
    {
      "inputs": [
        {
          "internalType": "address",
          "name": "_tenderAddress",
          "type": "address"
        }
      ],
      "name": "getBidsForTender",
      "outputs": [
        {
          "components": [
            {
              "internalType": "address",
              "name": "tenderAddress",
              "type": "address"
            },
            {
              "internalType": "string",
              "name": "title",
              "type": "string"
            },
            {
              "internalType": "string",
              "name": "description",
              "type": "string"
            },
            {
              "internalType": "uint256",
              "name": "amount",
              "type": "uint256"
            },
            {
              "internalType": "string",
              "name": "status",
              "type": "string"
            },
            {
              "internalType": "address",
              "name": "bidderAddress",
              "type": "address"
            }
          ],
          "internalType": "struct BidContract.Bid[]",
          "name": "",
          "type": "tuple[]"
        }
      ],
      "stateMutability": "view",
      "type": "function",
      "constant": true
    }
  ],
  "bytecode": "0x608060405234801561001057600080fd5b50611371806100206000396000f3fe608060405234801561001057600080fd5b506004361061004c5760003560e01c80636181a8ca14610051578063b0a5512414610081578063b7cee5261461009d578063b81c78ec146100b9575b600080fd5b61006b60048036038101906100669190610abd565b6100d7565b6040516100789190610cfb565b60405180910390f35b61009b60048036038101906100969190610e7e565b6103e0565b005b6100b760048036038101906100b29190610f4d565b610589565b005b6100c1610744565b6040516100ce9190610cfb565b60405180910390f35b60606000808373ffffffffffffffffffffffffffffffffffffffff1673ffffffffffffffffffffffffffffffffffffffff168152602001908152602001600020805480602002602001604051908101604052809291908181526020016000905b828210156103d557838290600052602060002090600602016040518060c00160405290816000820160009054906101000a900473ffffffffffffffffffffffffffffffffffffffff1673ffffffffffffffffffffffffffffffffffffffff1673ffffffffffffffffffffffffffffffffffffffff1681526020016001820180546101c09061105d565b80601f01602080910402602001604051908101604052809291908181526020018280546101ec9061105d565b80156102395780601f1061020e57610100808354040283529160200191610239565b820191906000526020600020905b81548152906001019060200180831161021c57829003601f168201915b505050505081526020016002820180546102529061105d565b80601f016020809104026020016040519081016040528092919081815260200182805461027e9061105d565b80156102cb5780601f106102a0576101008083540402835291602001916102cb565b820191906000526020600020905b8154815290600101906020018083116102ae57829003601f168201915b50505050508152602001600382015481526020016004820180546102ee9061105d565b80601f016020809104026020016040519081016040528092919081815260200182805461031a9061105d565b80156103675780601f1061033c57610100808354040283529160200191610367565b820191906000526020600020905b81548152906001019060200180831161034a57829003601f168201915b505050505081526020016005820160009054906101000a900473ffffffffffffffffffffffffffffffffffffffff1673ffffffffffffffffffffffffffffffffffffffff1673ffffffffffffffffffffffffffffffffffffffff168152505081526020019060010190610137565b505050509050919050565b60006040518060c001604052808773ffffffffffffffffffffffffffffffffffffffff1681526020018681526020018581526020018481526020018381526020013373ffffffffffffffffffffffffffffffffffffffff1681525090506000808773ffffffffffffffffffffffffffffffffffffffff1673ffffffffffffffffffffffffffffffffffffffff16815260200190815260200160002081908060018154018082558091505060019003906000526020600020906006020160009091909190915060008201518160000160006101000a81548173ffffffffffffffffffffffffffffffffffffffff021916908373ffffffffffffffffffffffffffffffffffffffff1602179055506020820151816001019081610501919061123a565b506040820151816002019081610517919061123a565b50606082015181600301556080820151816004019081610537919061123a565b5060a08201518160050160006101000a81548173ffffffffffffffffffffffffffffffffffffffff021916908373ffffffffffffffffffffffffffffffffffffffff1602179055505050505050505050565b836000808773ffffffffffffffffffffffffffffffffffffffff1673ffffffffffffffffffffffffffffffffffffffff16815260200190815260200160002087815481106105da576105d961130c565b5b906000526020600020906006020160010190816105f7919061123a565b50826000808773ffffffffffffffffffffffffffffffffffffffff1673ffffffffffffffffffffffffffffffffffffffff16815260200190815260200160002087815481106106495761064861130c565b5b90600052602060002090600602016002019081610666919061123a565b50816000808773ffffffffffffffffffffffffffffffffffffffff1673ffffffffffffffffffffffffffffffffffffffff16815260200190815260200160002087815481106106b8576106b761130c565b5b906000526020600020906006020160030181905550806000808773ffffffffffffffffffffffffffffffffffffffff1673ffffffffffffffffffffffffffffffffffffffff168152602001908152602001600020878154811061071e5761071d61130c565b5b9060005260206000209060060201600401908161073b919061123a565b50505050505050565b60606000803373ffffffffffffffffffffffffffffffffffffffff1673ffffffffffffffffffffffffffffffffffffffff168152602001908152602001600020805480602002602001604051908101604052809291908181526020016000905b82821015610a4257838290600052602060002090600602016040518060c00160405290816000820160009054906101000a900473ffffffffffffffffffffffffffffffffffffffff1673ffffffffffffffffffffffffffffffffffffffff1673ffffffffffffffffffffffffffffffffffffffff16815260200160018201805461082d9061105d565b80601f01602080910402602001604051908101604052809291908181526020018280546108599061105d565b80156108a65780601f1061087b576101008083540402835291602001916108a6565b820191906000526020600020905b81548152906001019060200180831161088957829003601f168201915b505050505081526020016002820180546108bf9061105d565b80601f01602080910402602001604051908101604052809291908181526020018280546108eb9061105d565b80156109385780601f1061090d57610100808354040283529160200191610938565b820191906000526020600020905b81548152906001019060200180831161091b57829003601f168201915b505050505081526020016003820154815260200160048201805461095b9061105d565b80601f01602080910402602001604051908101604052809291908181526020018280546109879061105d565b80156109d45780601f106109a9576101008083540402835291602001916109d4565b820191906000526020600020905b8154815290600101906020018083116109b757829003601f168201915b505050505081526020016005820160009054906101000a900473ffffffffffffffffffffffffffffffffffffffff1673ffffffffffffffffffffffffffffffffffffffff1673ffffffffffffffffffffffffffffffffffffffff1681525050815260200190600101906107a4565b50505050905090565b6000604051905090565b600080fd5b600080fd5b600073ffffffffffffffffffffffffffffffffffffffff82169050919050565b6000610a8a82610a5f565b9050919050565b610a9a81610a7f565b8114610aa557600080fd5b50565b600081359050610ab781610a91565b92915050565b600060208284031215610ad357610ad2610a55565b5b6000610ae184828501610aa8565b91505092915050565b600081519050919050565b600082825260208201905092915050565b6000819050602082019050919050565b610b1f81610a7f565b82525050565b600081519050919050565b600082825260208201905092915050565b60005b83811015610b5f578082015181840152602081019050610b44565b60008484015250505050565b6000601f19601f8301169050919050565b6000610b8782610b25565b610b918185610b30565b9350610ba1818560208601610b41565b610baa81610b6b565b840191505092915050565b6000819050919050565b610bc881610bb5565b82525050565b600060c083016000830151610be66000860182610b16565b5060208301518482036020860152610bfe8282610b7c565b91505060408301518482036040860152610c188282610b7c565b9150506060830151610c2d6060860182610bbf565b5060808301518482036080860152610c458282610b7c565b91505060a0830151610c5a60a0860182610b16565b508091505092915050565b6000610c718383610bce565b905092915050565b6000602082019050919050565b6000610c9182610aea565b610c9b8185610af5565b935083602082028501610cad85610b06565b8060005b85811015610ce95784840389528151610cca8582610c65565b9450610cd583610c79565b925060208a01995050600181019050610cb1565b50829750879550505050505092915050565b60006020820190508181036000830152610d158184610c86565b905092915050565b600080fd5b600080fd5b7f4e487b7100000000000000000000000000000000000000000000000000000000600052604160045260246000fd5b610d5f82610b6b565b810181811067ffffffffffffffff82111715610d7e57610d7d610d27565b5b80604052505050565b6000610d91610a4b565b9050610d9d8282610d56565b919050565b600067ffffffffffffffff821115610dbd57610dbc610d27565b5b610dc682610b6b565b9050602081019050919050565b82818337600083830152505050565b6000610df5610df084610da2565b610d87565b905082815260208101848484011115610e1157610e10610d22565b5b610e1c848285610dd3565b509392505050565b600082601f830112610e3957610e38610d1d565b5b8135610e49848260208601610de2565b91505092915050565b610e5b81610bb5565b8114610e6657600080fd5b50565b600081359050610e7881610e52565b92915050565b600080600080600060a08688031215610e9a57610e99610a55565b5b6000610ea888828901610aa8565b955050602086013567ffffffffffffffff811115610ec957610ec8610a5a565b5b610ed588828901610e24565b945050604086013567ffffffffffffffff811115610ef657610ef5610a5a565b5b610f0288828901610e24565b9350506060610f1388828901610e69565b925050608086013567ffffffffffffffff811115610f3457610f33610a5a565b5b610f4088828901610e24565b9150509295509295909350565b60008060008060008060c08789031215610f6a57610f69610a55565b5b6000610f7889828a01610e69565b9650506020610f8989828a01610aa8565b955050604087013567ffffffffffffffff811115610faa57610fa9610a5a565b5b610fb689828a01610e24565b945050606087013567ffffffffffffffff811115610fd757610fd6610a5a565b5b610fe389828a01610e24565b9350506080610ff489828a01610e69565b92505060a087013567ffffffffffffffff81111561101557611014610a5a565b5b61102189828a01610e24565b9150509295509295509295565b7f4e487b7100000000000000000000000000000000000000000000000000000000600052602260045260246000fd5b6000600282049050600182168061107557607f821691505b6020821081036110885761108761102e565b5b50919050565b60008190508160005260206000209050919050565b60006020601f8301049050919050565b600082821b905092915050565b6000600883026110f07fffffffffffffffffffffffffffffffffffffffffffffffffffffffffffffffff826110b3565b6110fa86836110b3565b95508019841693508086168417925050509392505050565b6000819050919050565b600061113761113261112d84610bb5565b611112565b610bb5565b9050919050565b6000819050919050565b6111518361111c565b61116561115d8261113e565b8484546110c0565b825550505050565b600090565b61117a61116d565b611185818484611148565b505050565b5b818110156111a95761119e600082611172565b60018101905061118b565b5050565b601f8211156111ee576111bf8161108e565b6111c8846110a3565b810160208510156111d7578190505b6111eb6111e3856110a3565b83018261118a565b50505b505050565b600082821c905092915050565b6000611211600019846008026111f3565b1980831691505092915050565b600061122a8383611200565b9150826002028217905092915050565b61124382610b25565b67ffffffffffffffff81111561125c5761125b610d27565b5b611266825461105d565b6112718282856111ad565b600060209050601f8311600181146112a45760008415611292578287015190505b61129c858261121e565b865550611304565b601f1984166112b28661108e565b60005b828110156112da578489015182556001820191506020850194506020810190506112b5565b868310156112f757848901516112f3601f891682611200565b8355505b6001600288020188555050505b505050505050565b7f4e487b7100000000000000000000000000000000000000000000000000000000600052603260045260246000fdfea26469706673582212207e98648f607f92befc84fda82f0ee77d178bca2ef755ba7f7ebed563420035e364736f6c63430008110033",
  "immutableReferences": {},
  "source": "// SPDX-License-Identifier: MIT\r\npragma solidity >=0.5.0 <0.9.0;\r\n\r\ncontract BidContract {\r\n    \r\n    struct Bid {\r\n        address tenderAddress;\r\n        string title;\r\n        string description;\r\n        uint256 amount;\r\n        string status;\r\n        address bidderAddress;\r\n    }\r\n\r\n    mapping (address => Bid[]) bids;\r\n\r\n    function placeBid(address _tenderAddress, string memory _title, string memory _description, uint256 _amount, string memory _status) public {\r\n        Bid memory newBid = Bid({\r\n            tenderAddress: _tenderAddress,\r\n            title: _title,\r\n            description: _description,\r\n            amount: _amount,\r\n            status: _status,\r\n            bidderAddress: msg.sender\r\n        });\r\n\r\n        bids[_tenderAddress].push(newBid);\r\n    }\r\n\r\n    function getBids() public view returns (Bid[] memory) {\r\n        return bids[msg.sender];\r\n    }\r\n\r\n    function updateBid(uint256 _index, address _tenderAddress, string memory _title, string memory _description, uint256 _amount, string memory _status) public {\r\n        bids[_tenderAddress][_index].title = _title;\r\n        bids[_tenderAddress][_index].description = _description;\r\n        bids[_tenderAddress][_index].amount = _amount;\r\n        bids[_tenderAddress][_index].status = _status;\r\n    }\r\n    \r\n    function getBidsForTender(address _tenderAddress) public view returns (Bid[] memory) {\r\n        return bids[_tenderAddress];\r\n    }\r\n}\r\n",
  "sourcePath": "C:\\Users\\Blessing Mwale\\Documents\\Projects\\truffle\\truffleEng-main\\contracts\\BidContract.sol",
  "compiler": {
    "name": "solc",
    "version": "0.8.17+commit.8df45f5f.Emscripten.clang"
  },
  "schemaVersion": "3.4.13",
  "updatedAt": "2023-04-13T11:27:59.041Z",
  "networkType": "ethereum",
  "devdoc": {
    "kind": "dev",
    "methods": {},
    "version": 1
  },
  "userdoc": {
    "kind": "user",
    "methods": {},
    "version": 1
  }
}