{
  "contractName": "TenderContract",
  "abi": [
    {
      "inputs": [
        {
          "internalType": "uint256",
          "name": "",
          "type": "uint256"
        }
      ],
      "name": "bids",
      "outputs": [
        {
          "internalType": "uint256",
          "name": "bidId",
          "type": "uint256"
        },
        {
          "internalType": "uint256",
          "name": "tenderId",
          "type": "uint256"
        },
        {
          "internalType": "string",
          "name": "title",
          "type": "string"
        },
        {
          "internalType": "string",
          "name": "description",
          "type": "string"
        },
        {
          "internalType": "uint256",
          "name": "amount",
          "type": "uint256"
        },
        {
          "internalType": "string",
          "name": "status",
          "type": "string"
        },
        {
          "internalType": "address",
          "name": "bidderAddress",
          "type": "address"
        },
        {
          "internalType": "string",
          "name": "company",
          "type": "string"
        }
      ],
      "stateMutability": "view",
      "type": "function",
      "constant": true
    },
    {
      "inputs": [],
      "name": "lastBidId",
      "outputs": [
        {
          "internalType": "uint256",
          "name": "",
          "type": "uint256"
        }
      ],
      "stateMutability": "view",
      "type": "function",
      "constant": true
    },
    {
      "inputs": [],
      "name": "lastTenderId",
      "outputs": [
        {
          "internalType": "uint256",
          "name": "",
          "type": "uint256"
        }
      ],
      "stateMutability": "view",
      "type": "function",
      "constant": true
    },
    {
      "inputs": [
        {
          "internalType": "uint256",
          "name": "",
          "type": "uint256"
        }
      ],
      "name": "tenders",
      "outputs": [
        {
          "internalType": "uint256",
          "name": "tenderId",
          "type": "uint256"
        },
        {
          "internalType": "string",
          "name": "title",
          "type": "string"
        },
        {
          "internalType": "string",
          "name": "description",
          "type": "string"
        },
        {
          "internalType": "string",
          "name": "startDate",
          "type": "string"
        },
        {
          "internalType": "string",
          "name": "endDate",
          "type": "string"
        },
        {
          "internalType": "string",
          "name": "status",
          "type": "string"
        },
        {
          "internalType": "uint256",
          "name": "numBids",
          "type": "uint256"
        }
      ],
      "stateMutability": "view",
      "type": "function",
      "constant": true
    },
    {
      "inputs": [
        {
          "internalType": "string",
          "name": "_title",
          "type": "string"
        },
        {
          "internalType": "string",
          "name": "_description",
          "type": "string"
        },
        {
          "internalType": "string",
          "name": "_startDate",
          "type": "string"
        },
        {
          "internalType": "string",
          "name": "_endDate",
          "type": "string"
        },
        {
          "internalType": "string",
          "name": "_status",
          "type": "string"
        },
        {
          "internalType": "uint256",
          "name": "_numBids",
          "type": "uint256"
        }
      ],
      "name": "setTender",
      "outputs": [],
      "stateMutability": "nonpayable",
      "type": "function"
    },
    {
      "inputs": [
        {
          "internalType": "uint256",
          "name": "_tenderId",
          "type": "uint256"
        },
        {
          "internalType": "string",
          "name": "_title",
          "type": "string"
        },
        {
          "internalType": "string",
          "name": "_description",
          "type": "string"
        },
        {
          "internalType": "string",
          "name": "_company",
          "type": "string"
        },
        {
          "internalType": "uint256",
          "name": "_amount",
          "type": "uint256"
        }
      ],
      "name": "placeBid",
      "outputs": [],
      "stateMutability": "nonpayable",
      "type": "function"
    },
    {
      "inputs": [
        {
          "internalType": "uint256",
          "name": "_tenderId",
          "type": "uint256"
        }
      ],
      "name": "getBidsForTender",
      "outputs": [
        {
          "components": [
            {
              "internalType": "uint256",
              "name": "bidId",
              "type": "uint256"
            },
            {
              "internalType": "uint256",
              "name": "tenderId",
              "type": "uint256"
            },
            {
              "internalType": "string",
              "name": "title",
              "type": "string"
            },
            {
              "internalType": "string",
              "name": "description",
              "type": "string"
            },
            {
              "internalType": "uint256",
              "name": "amount",
              "type": "uint256"
            },
            {
              "internalType": "string",
              "name": "status",
              "type": "string"
            },
            {
              "internalType": "address",
              "name": "bidderAddress",
              "type": "address"
            },
            {
              "internalType": "string",
              "name": "company",
              "type": "string"
            }
          ],
          "internalType": "struct TenderContract.Bid[]",
          "name": "",
          "type": "tuple[]"
        }
      ],
      "stateMutability": "view",
      "type": "function",
      "constant": true
    },
    {
      "inputs": [
        {
          "internalType": "uint256",
          "name": "_tenderId",
          "type": "uint256"
        },
        {
          "internalType": "address",
          "name": "_userAddress",
          "type": "address"
        }
      ],
      "name": "getBidsForUserOnTender",
      "outputs": [
        {
          "components": [
            {
              "internalType": "uint256",
              "name": "bidId",
              "type": "uint256"
            },
            {
              "internalType": "uint256",
              "name": "tenderId",
              "type": "uint256"
            },
            {
              "internalType": "string",
              "name": "title",
              "type": "string"
            },
            {
              "internalType": "string",
              "name": "description",
              "type": "string"
            },
            {
              "internalType": "uint256",
              "name": "amount",
              "type": "uint256"
            },
            {
              "internalType": "string",
              "name": "status",
              "type": "string"
            },
            {
              "internalType": "address",
              "name": "bidderAddress",
              "type": "address"
            },
            {
              "internalType": "string",
              "name": "company",
              "type": "string"
            }
          ],
          "internalType": "struct TenderContract.Bid[]",
          "name": "",
          "type": "tuple[]"
        }
      ],
      "stateMutability": "view",
      "type": "function",
      "constant": true
    },
    {
      "inputs": [
        {
          "internalType": "uint256",
          "name": "_bidId",
          "type": "uint256"
        },
        {
          "internalType": "string",
          "name": "status",
          "type": "string"
        }
      ],
      "name": "acceptBid",
      "outputs": [],
      "stateMutability": "nonpayable",
      "type": "function"
    },
    {
      "inputs": [
        {
          "internalType": "uint256",
          "name": "_tenderId",
          "type": "uint256"
        }
      ],
      "name": "getTender",
      "outputs": [
        {
          "components": [
            {
              "internalType": "uint256",
              "name": "tenderId",
              "type": "uint256"
            },
            {
              "internalType": "string",
              "name": "title",
              "type": "string"
            },
            {
              "internalType": "string",
              "name": "description",
              "type": "string"
            },
            {
              "internalType": "string",
              "name": "startDate",
              "type": "string"
            },
            {
              "internalType": "string",
              "name": "endDate",
              "type": "string"
            },
            {
              "internalType": "string",
              "name": "status",
              "type": "string"
            },
            {
              "internalType": "uint256",
              "name": "numBids",
              "type": "uint256"
            }
          ],
          "internalType": "struct TenderContract.Tender",
          "name": "",
          "type": "tuple"
        }
      ],
      "stateMutability": "view",
      "type": "function",
      "constant": true
    },
    {
      "inputs": [],
      "name": "getTenders",
      "outputs": [
        {
          "components": [
            {
              "internalType": "uint256",
              "name": "tenderId",
              "type": "uint256"
            },
            {
              "internalType": "string",
              "name": "title",
              "type": "string"
            },
            {
              "internalType": "string",
              "name": "description",
              "type": "string"
            },
            {
              "internalType": "string",
              "name": "startDate",
              "type": "string"
            },
            {
              "internalType": "string",
              "name": "endDate",
              "type": "string"
            },
            {
              "internalType": "string",
              "name": "status",
              "type": "string"
            },
            {
              "internalType": "uint256",
              "name": "numBids",
              "type": "uint256"
            }
          ],
          "internalType": "struct TenderContract.Tender[]",
          "name": "",
          "type": "tuple[]"
        }
      ],
      "stateMutability": "view",
      "type": "function",
      "constant": true
    },
    {
      "inputs": [],
      "name": "getBids",
      "outputs": [
        {
          "components": [
            {
              "internalType": "uint256",
              "name": "bidId",
              "type": "uint256"
            },
            {
              "internalType": "uint256",
              "name": "tenderId",
              "type": "uint256"
            },
            {
              "internalType": "string",
              "name": "title",
              "type": "string"
            },
            {
              "internalType": "string",
              "name": "description",
              "type": "string"
            },
            {
              "internalType": "uint256",
              "name": "amount",
              "type": "uint256"
            },
            {
              "internalType": "string",
              "name": "status",
              "type": "string"
            },
            {
              "internalType": "address",
              "name": "bidderAddress",
              "type": "address"
            },
            {
              "internalType": "string",
              "name": "company",
              "type": "string"
            }
          ],
          "internalType": "struct TenderContract.Bid[]",
          "name": "",
          "type": "tuple[]"
        }
      ],
      "stateMutability": "view",
      "type": "function",
      "constant": true
    },
    {
      "inputs": [],
      "name": "getOpenTenders",
      "outputs": [
        {
          "components": [
            {
              "internalType": "uint256",
              "name": "tenderId",
              "type": "uint256"
            },
            {
              "internalType": "string",
              "name": "title",
              "type": "string"
            },
            {
              "internalType": "string",
              "name": "description",
              "type": "string"
            },
            {
              "internalType": "string",
              "name": "startDate",
              "type": "string"
            },
            {
              "internalType": "string",
              "name": "endDate",
              "type": "string"
            },
            {
              "internalType": "string",
              "name": "status",
              "type": "string"
            },
            {
              "internalType": "uint256",
              "name": "numBids",
              "type": "uint256"
            }
          ],
          "internalType": "struct TenderContract.Tender[]",
          "name": "",
          "type": "tuple[]"
        }
      ],
      "stateMutability": "view",
      "type": "function",
      "constant": true
    },
    {
      "inputs": [
        {
          "internalType": "uint256",
          "name": "_tenderId",
          "type": "uint256"
        }
      ],
      "name": "closeTender",
      "outputs": [],
      "stateMutability": "nonpayable",
      "type": "function"
    }
  ],
  "bytecode": "0x60806040526001600055600160025534801561001a57600080fd5b506133278061002a6000396000f3fe608060405234801561001057600080fd5b50600436106100e95760003560e01c80637b9d10d61161008c578063e63d87bc11610066578063e63d87bc14610269578063eec8d44214610285578063ef78e28b146102a3578063f18ee10b146102c1576100e9565b80637b9d10d61461021357806399a6dce81461022f578063b81c78ec1461024b576100e9565b8063267b51b3116100c8578063267b51b3146101585780634423c5f114610188578063465e1def146101bf57806362bdcbeb146101f5576100e9565b8062cda3da146100ee5780630585c25e1461010a57806312d0ec801461013a575b600080fd5b610108600480360381019061010391906123a7565b6102f1565b005b610124600480360381019061011f91906123a7565b6103ad565b604051610131919061252b565b60405180910390f35b61014261072e565b60405161014f91906126c7565b60405180910390f35b610172600480360381019061016d91906123a7565b610a7b565b60405161017f91906128b1565b60405180910390f35b6101a2600480360381019061019d91906123a7565b610e4c565b6040516101b698979695949392919061293b565b60405180910390f35b6101d960048036038101906101d491906123a7565b6110e4565b6040516101ec97969594939291906129d5565b60405180910390f35b6101fd6113de565b60405161020a9190612a67565b60405180910390f35b61022d60048036038101906102289190612bb7565b6113e4565b005b61024960048036038101906102449190612cd0565b6114ed565b005b610253611683565b60405161026091906128b1565b60405180910390f35b610283600480360381019061027e9190612d9f565b61199f565b005b61028d611a27565b60405161029a91906126c7565b60405180910390f35b6102ab611e70565b6040516102b89190612a67565b60405180910390f35b6102db60048036038101906102d69190612e27565b611e76565b6040516102e891906128b1565b60405180910390f35b60005b6001805490508110156103a957816001828154811061031657610315612e67565b5b90600052602060002090600702016000015403610396576040518060400160405280600681526020017f436c6f73656400000000000000000000000000000000000000000000000000008152506001828154811061037757610376612e67565b5b9060005260206000209060070201600501908161039491906130a2565b505b80806103a1906131a3565b9150506102f4565b5050565b6103b56122c5565b60005b6001805490508110156107275782600182815481106103da576103d9612e67565b5b90600052602060002090600702016000015403610714576001818154811061040557610404612e67565b5b90600052602060002090600702016040518060e00160405290816000820154815260200160018201805461043890612ec5565b80601f016020809104026020016040519081016040528092919081815260200182805461046490612ec5565b80156104b15780601f10610486576101008083540402835291602001916104b1565b820191906000526020600020905b81548152906001019060200180831161049457829003601f168201915b505050505081526020016002820180546104ca90612ec5565b80601f01602080910402602001604051908101604052809291908181526020018280546104f690612ec5565b80156105435780601f1061051857610100808354040283529160200191610543565b820191906000526020600020905b81548152906001019060200180831161052657829003601f168201915b5050505050815260200160038201805461055c90612ec5565b80601f016020809104026020016040519081016040528092919081815260200182805461058890612ec5565b80156105d55780601f106105aa576101008083540402835291602001916105d5565b820191906000526020600020905b8154815290600101906020018083116105b857829003601f168201915b505050505081526020016004820180546105ee90612ec5565b80601f016020809104026020016040519081016040528092919081815260200182805461061a90612ec5565b80156106675780601f1061063c57610100808354040283529160200191610667565b820191906000526020600020905b81548152906001019060200180831161064a57829003601f168201915b5050505050815260200160058201805461068090612ec5565b80601f01602080910402602001604051908101604052809291908181526020018280546106ac90612ec5565b80156106f95780601f106106ce576101008083540402835291602001916106f9565b820191906000526020600020905b8154815290600101906020018083116106dc57829003601f168201915b50505050508152602001600682015481525050915050610729565b808061071f906131a3565b9150506103b8565b505b919050565b60606001805480602002602001604051908101604052809291908181526020016000905b82821015610a7257838290600052602060002090600702016040518060e00160405290816000820154815260200160018201805461078f90612ec5565b80601f01602080910402602001604051908101604052809291908181526020018280546107bb90612ec5565b80156108085780601f106107dd57610100808354040283529160200191610808565b820191906000526020600020905b8154815290600101906020018083116107eb57829003601f168201915b5050505050815260200160028201805461082190612ec5565b80601f016020809104026020016040519081016040528092919081815260200182805461084d90612ec5565b801561089a5780601f1061086f5761010080835404028352916020019161089a565b820191906000526020600020905b81548152906001019060200180831161087d57829003601f168201915b505050505081526020016003820180546108b390612ec5565b80601f01602080910402602001604051908101604052809291908181526020018280546108df90612ec5565b801561092c5780601f106109015761010080835404028352916020019161092c565b820191906000526020600020905b81548152906001019060200180831161090f57829003601f168201915b5050505050815260200160048201805461094590612ec5565b80601f016020809104026020016040519081016040528092919081815260200182805461097190612ec5565b80156109be5780601f10610993576101008083540402835291602001916109be565b820191906000526020600020905b8154815290600101906020018083116109a157829003601f168201915b505050505081526020016005820180546109d790612ec5565b80601f0160208091040260200160405190810160405280929190818152602001828054610a0390612ec5565b8015610a505780601f10610a2557610100808354040283529160200191610a50565b820191906000526020600020905b815481529060010190602001808311610a3357829003601f168201915b5050505050815260200160068201548152505081526020019060010190610752565b50505050905090565b6060600060038054905067ffffffffffffffff811115610a9e57610a9d612a8c565b5b604051908082528060200260200182016040528015610ad757816020015b610ac4612302565b815260200190600190039081610abc5790505b5090506000805b600380549050811015610e41578460038281548110610b0057610aff612e67565b5b90600052602060002090600802016001015403610e2e5760038181548110610b2b57610b2a612e67565b5b9060005260206000209060080201604051806101000160405290816000820154815260200160018201548152602001600282018054610b6990612ec5565b80601f0160208091040260200160405190810160405280929190818152602001828054610b9590612ec5565b8015610be25780601f10610bb757610100808354040283529160200191610be2565b820191906000526020600020905b815481529060010190602001808311610bc557829003601f168201915b50505050508152602001600382018054610bfb90612ec5565b80601f0160208091040260200160405190810160405280929190818152602001828054610c2790612ec5565b8015610c745780601f10610c4957610100808354040283529160200191610c74565b820191906000526020600020905b815481529060010190602001808311610c5757829003601f168201915b5050505050815260200160048201548152602001600582018054610c9790612ec5565b80601f0160208091040260200160405190810160405280929190818152602001828054610cc390612ec5565b8015610d105780601f10610ce557610100808354040283529160200191610d10565b820191906000526020600020905b815481529060010190602001808311610cf357829003601f168201915b505050505081526020016006820160009054906101000a900473ffffffffffffffffffffffffffffffffffffffff1673ffffffffffffffffffffffffffffffffffffffff1673ffffffffffffffffffffffffffffffffffffffff168152602001600782018054610d7f90612ec5565b80601f0160208091040260200160405190810160405280929190818152602001828054610dab90612ec5565b8015610df85780601f10610dcd57610100808354040283529160200191610df8565b820191906000526020600020905b815481529060010190602001808311610ddb57829003601f168201915b505050505081525050838381518110610e1457610e13612e67565b5b60200260200101819052508180610e2a906131a3565b9250505b8080610e39906131a3565b915050610ade565b508192505050919050565b60038181548110610e5c57600080fd5b9060005260206000209060080201600091509050806000015490806001015490806002018054610e8b90612ec5565b80601f0160208091040260200160405190810160405280929190818152602001828054610eb790612ec5565b8015610f045780601f10610ed957610100808354040283529160200191610f04565b820191906000526020600020905b815481529060010190602001808311610ee757829003601f168201915b505050505090806003018054610f1990612ec5565b80601f0160208091040260200160405190810160405280929190818152602001828054610f4590612ec5565b8015610f925780601f10610f6757610100808354040283529160200191610f92565b820191906000526020600020905b815481529060010190602001808311610f7557829003601f168201915b505050505090806004015490806005018054610fad90612ec5565b80601f0160208091040260200160405190810160405280929190818152602001828054610fd990612ec5565b80156110265780601f10610ffb57610100808354040283529160200191611026565b820191906000526020600020905b81548152906001019060200180831161100957829003601f168201915b5050505050908060060160009054906101000a900473ffffffffffffffffffffffffffffffffffffffff169080600701805461106190612ec5565b80601f016020809104026020016040519081016040528092919081815260200182805461108d90612ec5565b80156110da5780601f106110af576101008083540402835291602001916110da565b820191906000526020600020905b8154815290600101906020018083116110bd57829003601f168201915b5050505050905088565b600181815481106110f457600080fd5b906000526020600020906007020160009150905080600001549080600101805461111d90612ec5565b80601f016020809104026020016040519081016040528092919081815260200182805461114990612ec5565b80156111965780601f1061116b57610100808354040283529160200191611196565b820191906000526020600020905b81548152906001019060200180831161117957829003601f168201915b5050505050908060020180546111ab90612ec5565b80601f01602080910402602001604051908101604052809291908181526020018280546111d790612ec5565b80156112245780601f106111f957610100808354040283529160200191611224565b820191906000526020600020905b81548152906001019060200180831161120757829003601f168201915b50505050509080600301805461123990612ec5565b80601f016020809104026020016040519081016040528092919081815260200182805461126590612ec5565b80156112b25780601f10611287576101008083540402835291602001916112b2565b820191906000526020600020905b81548152906001019060200180831161129557829003601f168201915b5050505050908060040180546112c790612ec5565b80601f01602080910402602001604051908101604052809291908181526020018280546112f390612ec5565b80156113405780601f1061131557610100808354040283529160200191611340565b820191906000526020600020905b81548152906001019060200180831161132357829003601f168201915b50505050509080600501805461135590612ec5565b80601f016020809104026020016040519081016040528092919081815260200182805461138190612ec5565b80156113ce5780601f106113a3576101008083540402835291602001916113ce565b820191906000526020600020905b8154815290600101906020018083116113b157829003601f168201915b5050505050908060060154905087565b60005481565b60006040518060e001604052806000548152602001888152602001878152602001868152602001858152602001848152602001838152509050600181908060018154018082558091505060019003906000526020600020906007020160009091909190915060008201518160000155602082015181600101908161146891906130a2565b50604082015181600201908161147e91906130a2565b50606082015181600301908161149491906130a2565b5060808201518160040190816114aa91906130a2565b5060a08201518160050190816114c091906130a2565b5060c0820151816006015550506000808154809291906114df906131a3565b919050555050505050505050565b600060405180610100016040528060025481526020018781526020018681526020018581526020018381526020016040518060400160405280600781526020017f50656e64696e670000000000000000000000000000000000000000000000000081525081526020013373ffffffffffffffffffffffffffffffffffffffff1681526020018481525090506003819080600181540180825580915050600190039060005260206000209060080201600090919091909150600082015181600001556020820151816001015560408201518160020190816115cd91906130a2565b5060608201518160030190816115e391906130a2565b506080820151816004015560a082015181600501908161160391906130a2565b5060c08201518160060160006101000a81548173ffffffffffffffffffffffffffffffffffffffff021916908373ffffffffffffffffffffffffffffffffffffffff16021790555060e082015181600701908161166091906130a2565b50505060026000815480929190611676906131a3565b9190505550505050505050565b60606003805480602002602001604051908101604052809291908181526020016000905b8282101561199657838290600052602060002090600802016040518061010001604052908160008201548152602001600182015481526020016002820180546116ef90612ec5565b80601f016020809104026020016040519081016040528092919081815260200182805461171b90612ec5565b80156117685780601f1061173d57610100808354040283529160200191611768565b820191906000526020600020905b81548152906001019060200180831161174b57829003601f168201915b5050505050815260200160038201805461178190612ec5565b80601f01602080910402602001604051908101604052809291908181526020018280546117ad90612ec5565b80156117fa5780601f106117cf576101008083540402835291602001916117fa565b820191906000526020600020905b8154815290600101906020018083116117dd57829003601f168201915b505050505081526020016004820154815260200160058201805461181d90612ec5565b80601f016020809104026020016040519081016040528092919081815260200182805461184990612ec5565b80156118965780601f1061186b57610100808354040283529160200191611896565b820191906000526020600020905b81548152906001019060200180831161187957829003601f168201915b505050505081526020016006820160009054906101000a900473ffffffffffffffffffffffffffffffffffffffff1673ffffffffffffffffffffffffffffffffffffffff1673ffffffffffffffffffffffffffffffffffffffff16815260200160078201805461190590612ec5565b80601f016020809104026020016040519081016040528092919081815260200182805461193190612ec5565b801561197e5780601f106119535761010080835404028352916020019161197e565b820191906000526020600020905b81548152906001019060200180831161196157829003601f168201915b505050505081525050815260200190600101906116a7565b50505050905090565b60005b600380549050811015611a225782600382815481106119c4576119c3612e67565b5b90600052602060002090600802016000015403611a0f5781600382815481106119f0576119ef612e67565b5b90600052602060002090600802016005019081611a0d91906130a2565b505b8080611a1a906131a3565b9150506119a2565b505050565b6060600060018054905067ffffffffffffffff811115611a4a57611a49612a8c565b5b604051908082528060200260200182016040528015611a8357816020015b611a706122c5565b815260200190600190039081611a685790505b5090506000805b600180549050811015611e6757604051602001611aa690613242565b6040516020818303038152906040528051906020012060018281548110611ad057611acf612e67565b5b9060005260206000209060070201600501604051602001611af191906132da565b6040516020818303038152906040528051906020012003611e545760018181548110611b2057611b1f612e67565b5b90600052602060002090600702016040518060e001604052908160008201548152602001600182018054611b5390612ec5565b80601f0160208091040260200160405190810160405280929190818152602001828054611b7f90612ec5565b8015611bcc5780601f10611ba157610100808354040283529160200191611bcc565b820191906000526020600020905b815481529060010190602001808311611baf57829003601f168201915b50505050508152602001600282018054611be590612ec5565b80601f0160208091040260200160405190810160405280929190818152602001828054611c1190612ec5565b8015611c5e5780601f10611c3357610100808354040283529160200191611c5e565b820191906000526020600020905b815481529060010190602001808311611c4157829003601f168201915b50505050508152602001600382018054611c7790612ec5565b80601f0160208091040260200160405190810160405280929190818152602001828054611ca390612ec5565b8015611cf05780601f10611cc557610100808354040283529160200191611cf0565b820191906000526020600020905b815481529060010190602001808311611cd357829003601f168201915b50505050508152602001600482018054611d0990612ec5565b80601f0160208091040260200160405190810160405280929190818152602001828054611d3590612ec5565b8015611d825780601f10611d5757610100808354040283529160200191611d82565b820191906000526020600020905b815481529060010190602001808311611d6557829003601f168201915b50505050508152602001600582018054611d9b90612ec5565b80601f0160208091040260200160405190810160405280929190818152602001828054611dc790612ec5565b8015611e145780601f10611de957610100808354040283529160200191611e14565b820191906000526020600020905b815481529060010190602001808311611df757829003601f168201915b50505050508152602001600682015481525050838381518110611e3a57611e39612e67565b5b60200260200101819052508180611e50906131a3565b9250505b8080611e5f906131a3565b915050611a8a565b50819250505090565b60025481565b6060600060038054905067ffffffffffffffff811115611e9957611e98612a8c565b5b604051908082528060200260200182016040528015611ed257816020015b611ebf612302565b815260200190600190039081611eb75790505b5090506000805b6003805490508110156122b9578560038281548110611efb57611efa612e67565b5b906000526020600020906008020160010154148015611f8a57508473ffffffffffffffffffffffffffffffffffffffff1660038281548110611f4057611f3f612e67565b5b906000526020600020906008020160060160009054906101000a900473ffffffffffffffffffffffffffffffffffffffff1673ffffffffffffffffffffffffffffffffffffffff16145b156122a65760038181548110611fa357611fa2612e67565b5b9060005260206000209060080201604051806101000160405290816000820154815260200160018201548152602001600282018054611fe190612ec5565b80601f016020809104026020016040519081016040528092919081815260200182805461200d90612ec5565b801561205a5780601f1061202f5761010080835404028352916020019161205a565b820191906000526020600020905b81548152906001019060200180831161203d57829003601f168201915b5050505050815260200160038201805461207390612ec5565b80601f016020809104026020016040519081016040528092919081815260200182805461209f90612ec5565b80156120ec5780601f106120c1576101008083540402835291602001916120ec565b820191906000526020600020905b8154815290600101906020018083116120cf57829003601f168201915b505050505081526020016004820154815260200160058201805461210f90612ec5565b80601f016020809104026020016040519081016040528092919081815260200182805461213b90612ec5565b80156121885780601f1061215d57610100808354040283529160200191612188565b820191906000526020600020905b81548152906001019060200180831161216b57829003601f168201915b505050505081526020016006820160009054906101000a900473ffffffffffffffffffffffffffffffffffffffff1673ffffffffffffffffffffffffffffffffffffffff1673ffffffffffffffffffffffffffffffffffffffff1681526020016007820180546121f790612ec5565b80601f016020809104026020016040519081016040528092919081815260200182805461222390612ec5565b80156122705780601f1061224557610100808354040283529160200191612270565b820191906000526020600020905b81548152906001019060200180831161225357829003601f168201915b50505050508152505083838151811061228c5761228b612e67565b5b602002602001018190525081806122a2906131a3565b9250505b80806122b1906131a3565b915050611ed9565b50819250505092915050565b6040518060e00160405280600081526020016060815260200160608152602001606081526020016060815260200160608152602001600081525090565b604051806101000160405280600081526020016000815260200160608152602001606081526020016000815260200160608152602001600073ffffffffffffffffffffffffffffffffffffffff168152602001606081525090565b6000604051905090565b600080fd5b600080fd5b6000819050919050565b61238481612371565b811461238f57600080fd5b50565b6000813590506123a18161237b565b92915050565b6000602082840312156123bd576123bc612367565b5b60006123cb84828501612392565b91505092915050565b6123dd81612371565b82525050565b600081519050919050565b600082825260208201905092915050565b60005b8381101561241d578082015181840152602081019050612402565b60008484015250505050565b6000601f19601f8301169050919050565b6000612445826123e3565b61244f81856123ee565b935061245f8185602086016123ff565b61246881612429565b840191505092915050565b600060e08301600083015161248b60008601826123d4565b50602083015184820360208601526124a3828261243a565b915050604083015184820360408601526124bd828261243a565b915050606083015184820360608601526124d7828261243a565b915050608083015184820360808601526124f1828261243a565b91505060a083015184820360a086015261250b828261243a565b91505060c083015161252060c08601826123d4565b508091505092915050565b600060208201905081810360008301526125458184612473565b905092915050565b600081519050919050565b600082825260208201905092915050565b6000819050602082019050919050565b600060e08301600083015161259160008601826123d4565b50602083015184820360208601526125a9828261243a565b915050604083015184820360408601526125c3828261243a565b915050606083015184820360608601526125dd828261243a565b915050608083015184820360808601526125f7828261243a565b91505060a083015184820360a0860152612611828261243a565b91505060c083015161262660c08601826123d4565b508091505092915050565b600061263d8383612579565b905092915050565b6000602082019050919050565b600061265d8261254d565b6126678185612558565b93508360208202850161267985612569565b8060005b858110156126b557848403895281516126968582612631565b94506126a183612645565b925060208a0199505060018101905061267d565b50829750879550505050505092915050565b600060208201905081810360008301526126e18184612652565b905092915050565b600081519050919050565b600082825260208201905092915050565b6000819050602082019050919050565b600073ffffffffffffffffffffffffffffffffffffffff82169050919050565b600061274082612715565b9050919050565b61275081612735565b82525050565b60006101008301600083015161276f60008601826123d4565b50602083015161278260208601826123d4565b506040830151848203604086015261279a828261243a565b915050606083015184820360608601526127b4828261243a565b91505060808301516127c960808601826123d4565b5060a083015184820360a08601526127e1828261243a565b91505060c08301516127f660c0860182612747565b5060e083015184820360e086015261280e828261243a565b9150508091505092915050565b60006128278383612756565b905092915050565b6000602082019050919050565b6000612847826126e9565b61285181856126f4565b93508360208202850161286385612705565b8060005b8581101561289f5784840389528151612880858261281b565b945061288b8361282f565b925060208a01995050600181019050612867565b50829750879550505050505092915050565b600060208201905081810360008301526128cb818461283c565b905092915050565b6128dc81612371565b82525050565b600082825260208201905092915050565b60006128fe826123e3565b61290881856128e2565b93506129188185602086016123ff565b61292181612429565b840191505092915050565b61293581612735565b82525050565b600061010082019050612951600083018b6128d3565b61295e602083018a6128d3565b818103604083015261297081896128f3565b9050818103606083015261298481886128f3565b905061299360808301876128d3565b81810360a08301526129a581866128f3565b90506129b460c083018561292c565b81810360e08301526129c681846128f3565b90509998505050505050505050565b600060e0820190506129ea600083018a6128d3565b81810360208301526129fc81896128f3565b90508181036040830152612a1081886128f3565b90508181036060830152612a2481876128f3565b90508181036080830152612a3881866128f3565b905081810360a0830152612a4c81856128f3565b9050612a5b60c08301846128d3565b98975050505050505050565b6000602082019050612a7c60008301846128d3565b92915050565b600080fd5b600080fd5b7f4e487b7100000000000000000000000000000000000000000000000000000000600052604160045260246000fd5b612ac482612429565b810181811067ffffffffffffffff82111715612ae357612ae2612a8c565b5b80604052505050565b6000612af661235d565b9050612b028282612abb565b919050565b600067ffffffffffffffff821115612b2257612b21612a8c565b5b612b2b82612429565b9050602081019050919050565b82818337600083830152505050565b6000612b5a612b5584612b07565b612aec565b905082815260208101848484011115612b7657612b75612a87565b5b612b81848285612b38565b509392505050565b600082601f830112612b9e57612b9d612a82565b5b8135612bae848260208601612b47565b91505092915050565b60008060008060008060c08789031215612bd457612bd3612367565b5b600087013567ffffffffffffffff811115612bf257612bf161236c565b5b612bfe89828a01612b89565b965050602087013567ffffffffffffffff811115612c1f57612c1e61236c565b5b612c2b89828a01612b89565b955050604087013567ffffffffffffffff811115612c4c57612c4b61236c565b5b612c5889828a01612b89565b945050606087013567ffffffffffffffff811115612c7957612c7861236c565b5b612c8589828a01612b89565b935050608087013567ffffffffffffffff811115612ca657612ca561236c565b5b612cb289828a01612b89565b92505060a0612cc389828a01612392565b9150509295509295509295565b600080600080600060a08688031215612cec57612ceb612367565b5b6000612cfa88828901612392565b955050602086013567ffffffffffffffff811115612d1b57612d1a61236c565b5b612d2788828901612b89565b945050604086013567ffffffffffffffff811115612d4857612d4761236c565b5b612d5488828901612b89565b935050606086013567ffffffffffffffff811115612d7557612d7461236c565b5b612d8188828901612b89565b9250506080612d9288828901612392565b9150509295509295909350565b60008060408385031215612db657612db5612367565b5b6000612dc485828601612392565b925050602083013567ffffffffffffffff811115612de557612de461236c565b5b612df185828601612b89565b9150509250929050565b612e0481612735565b8114612e0f57600080fd5b50565b600081359050612e2181612dfb565b92915050565b60008060408385031215612e3e57612e3d612367565b5b6000612e4c85828601612392565b9250506020612e5d85828601612e12565b9150509250929050565b7f4e487b7100000000000000000000000000000000000000000000000000000000600052603260045260246000fd5b7f4e487b7100000000000000000000000000000000000000000000000000000000600052602260045260246000fd5b60006002820490506001821680612edd57607f821691505b602082108103612ef057612eef612e96565b5b50919050565b60008190508160005260206000209050919050565b60006020601f8301049050919050565b600082821b905092915050565b600060088302612f587fffffffffffffffffffffffffffffffffffffffffffffffffffffffffffffffff82612f1b565b612f628683612f1b565b95508019841693508086168417925050509392505050565b6000819050919050565b6000612f9f612f9a612f9584612371565b612f7a565b612371565b9050919050565b6000819050919050565b612fb983612f84565b612fcd612fc582612fa6565b848454612f28565b825550505050565b600090565b612fe2612fd5565b612fed818484612fb0565b505050565b5b8181101561301157613006600082612fda565b600181019050612ff3565b5050565b601f8211156130565761302781612ef6565b61303084612f0b565b8101602085101561303f578190505b61305361304b85612f0b565b830182612ff2565b50505b505050565b600082821c905092915050565b60006130796000198460080261305b565b1980831691505092915050565b60006130928383613068565b9150826002028217905092915050565b6130ab826123e3565b67ffffffffffffffff8111156130c4576130c3612a8c565b5b6130ce8254612ec5565b6130d9828285613015565b600060209050601f83116001811461310c57600084156130fa578287015190505b6131048582613086565b86555061316c565b601f19841661311a86612ef6565b60005b828110156131425784890151825560018201915060208501945060208101905061311d565b8683101561315f578489015161315b601f891682613068565b8355505b6001600288020188555050505b505050505050565b7f4e487b7100000000000000000000000000000000000000000000000000000000600052601160045260246000fd5b60006131ae82612371565b91507fffffffffffffffffffffffffffffffffffffffffffffffffffffffffffffffff82036131e0576131df613174565b5b600182019050919050565b600081905092915050565b7f4f70656e00000000000000000000000000000000000000000000000000000000600082015250565b600061322c6004836131eb565b9150613237826131f6565b600482019050919050565b600061324d8261321f565b9150819050919050565b6000815461326481612ec5565b61326e81866131eb565b94506001821660008114613289576001811461329e576132d1565b60ff19831686528115158202860193506132d1565b6132a785612ef6565b60005b838110156132c9578154818901526001820191506020810190506132aa565b838801955050505b50505092915050565b60006132e68284613257565b91508190509291505056fea26469706673582212206982e7af195c7fb8f0e6bd41b4abb07a4f995ea3ab307ef9ad847545399b2b6f64736f6c63430008110033",
  "immutableReferences": {},
  "source": "// SPDX-License-Identifier: MIT\r\npragma solidity >=0.5.0 <0.9.0;\r\n\r\ncontract TenderContract {\r\n    //call this function to set dummy tender for testing\r\n\r\n    struct Tender {\r\n        uint tenderId;\r\n        string title;\r\n        string description;\r\n        string startDate;\r\n        string endDate;\r\n        string status;\r\n        uint256 numBids;\r\n    }\r\n\r\n    struct Bid {\r\n        uint bidId;\r\n        uint tenderId;\r\n        string title;\r\n        string description;\r\n        uint256 amount;\r\n        string status;\r\n        address bidderAddress;\r\n        string company;\r\n    }\r\n\r\n    //define tender map and populate with dummy tender\r\n    uint public lastTenderId = 1;\r\n    Tender[] public tenders;\r\n\r\n    uint public lastBidId = 1;\r\n    Bid[] public bids;\r\n\r\n    // mapping (address => Tender[]) tenders;\r\n\r\n    // mapping (address => Tender[]) tenders;\r\n\r\n    function setTender(\r\n        string memory _title,\r\n        string memory _description,\r\n        string memory _startDate,\r\n        string memory _endDate,\r\n        string memory _status,\r\n        uint256 _numBids\r\n    ) public {\r\n        Tender memory newTender = Tender(\r\n            lastTenderId,\r\n            _title,\r\n            _description,\r\n            _startDate,\r\n            _endDate,\r\n            _status,\r\n            _numBids\r\n        );\r\n\r\n        tenders.push(newTender);\r\n        lastTenderId++;\r\n    }\r\n\r\n    function placeBid(\r\n        uint _tenderId,\r\n        string memory _title,\r\n        string memory _description,\r\n        string memory _company,\r\n        uint256 _amount\r\n    ) public {\r\n        Bid memory newBid = Bid(\r\n            lastBidId,\r\n            _tenderId,\r\n            _title,\r\n            _description,\r\n            _amount,\r\n            \"Pending\",\r\n            msg.sender,\r\n            _company\r\n        );\r\n        bids.push(newBid);\r\n        lastBidId++;\r\n    }\r\n\r\n    //get tender bids\r\n    function getBidsForTender(\r\n        uint _tenderId\r\n    ) public view returns (Bid[] memory) {\r\n        Bid[] memory tenderBids = new Bid[](bids.length);\r\n        uint256 tenderBidCount = 0;\r\n\r\n        for (uint i = 0; i < bids.length; i++) {\r\n            if (bids[i].tenderId == _tenderId) {\r\n                tenderBids[tenderBidCount] = bids[i];\r\n                tenderBidCount++;\r\n            }\r\n        }\r\n\r\n        return tenderBids;\r\n    }\r\n    //get bids for user on a tender\r\n    function getBidsForUserOnTender(\r\n        uint _tenderId,\r\n        address _userAddress\r\n    ) public view returns (Bid[] memory) {\r\n        Bid[] memory tenderBids = new Bid[](bids.length);\r\n        uint256 tenderBidCount = 0;\r\n\r\n        for (uint i = 0; i < bids.length; i++) {\r\n            if (\r\n                bids[i].tenderId == _tenderId &&\r\n                bids[i].bidderAddress == _userAddress\r\n            ) {\r\n                tenderBids[tenderBidCount] = bids[i];\r\n                tenderBidCount++;\r\n            }\r\n        }\r\n\r\n        return tenderBids;\r\n    }\r\n\r\n    //accept bid\r\n    function acceptBid(uint _bidId, string memory status) public {\r\n        for (uint i = 0; i < bids.length; i++) {\r\n            if (bids[i].bidId == _bidId) {\r\n                bids[i].status = status;\r\n            }\r\n        }\r\n    }\r\n    //get sinlge tender\r\n    function getTender(uint _tenderId) public view returns (Tender memory) {\r\n        for (uint i = 0; i < tenders.length; i++) {\r\n            if (tenders[i].tenderId == _tenderId) {\r\n                return tenders[i];\r\n            }\r\n        }\r\n    }\r\n\r\n    function getTenders() public view returns (Tender[] memory) {\r\n        return tenders;\r\n    }\r\n    function getBids() public view returns (Bid[] memory) {\r\n        return bids;\r\n    }\r\n\r\n    //get only open tenders\r\n    function getOpenTenders() public view returns (Tender[] memory) {\r\n        Tender[] memory openTenders = new Tender[](tenders.length);\r\n        uint256 openTenderCount = 0;\r\n\r\n        for (uint i = 0; i < tenders.length; i++) {\r\n            if (\r\n                keccak256(abi.encodePacked(tenders[i].status)) ==\r\n                keccak256(abi.encodePacked(\"Open\"))\r\n            ) {\r\n                openTenders[openTenderCount] = tenders[i];\r\n                openTenderCount++;\r\n            }\r\n        }\r\n\r\n        return openTenders;\r\n    }\r\n\r\n    // function updateTender(\r\n    //     uint256 _index,\r\n    //     string memory _title,\r\n    //     string memory _description,\r\n    //     string memory _startDate,\r\n    //     string memory _endDate,\r\n    //     string memory _status,\r\n    //     uint256 _numBids\r\n    // ) public {\r\n    //     tenders[msg.sender][_index].title = _title;\r\n    //     tenders[msg.sender][_index].description = _description;\r\n    //     tenders[msg.sender][_index].startDate = _startDate;\r\n    //     tenders[msg.sender][_index].endDate = _endDate;\r\n    //     tenders[msg.sender][_index].status = _status;\r\n    //     tenders[msg.sender][_index].numBids = _numBids;\r\n    // }\r\n\r\n    function closeTender(uint _tenderId) public {\r\n        for (uint i = 0; i < tenders.length; i++) {\r\n            if (tenders[i].tenderId == _tenderId) {\r\n                tenders[i].status = \"Closed\";\r\n            }\r\n        }\r\n    }\r\n}\r\n",
  "sourcePath": "C:\\Users\\Blessing Mwale\\Documents\\Projects\\truffle\\truffleEng-main\\contracts\\TenderContract.sol",
  "compiler": {
    "name": "solc",
    "version": "0.8.17+commit.8df45f5f.Emscripten.clang"
  },
  "schemaVersion": "3.4.13",
  "updatedAt": "2023-05-01T21:37:51.729Z",
  "networkType": "ethereum",
  "devdoc": {
    "kind": "dev",
    "methods": {},
    "version": 1
  },
  "userdoc": {
    "kind": "user",
    "methods": {},
    "version": 1
  }
}