{
  "contractName": "TenderContract",
  "abi": [
    {
      "inputs": [
        {
          "internalType": "uint256",
          "name": "",
          "type": "uint256"
        }
      ],
      "name": "bids",
      "outputs": [
        {
          "internalType": "uint256",
          "name": "bidId",
          "type": "uint256"
        },
        {
          "internalType": "uint256",
          "name": "tenderId",
          "type": "uint256"
        },
        {
          "internalType": "string",
          "name": "title",
          "type": "string"
        },
        {
          "internalType": "string",
          "name": "description",
          "type": "string"
        },
        {
          "internalType": "uint256",
          "name": "amount",
          "type": "uint256"
        },
        {
          "internalType": "string",
          "name": "status",
          "type": "string"
        },
        {
          "internalType": "address",
          "name": "bidderAddress",
          "type": "address"
        }
      ],
      "stateMutability": "view",
      "type": "function",
      "constant": true
    },
    {
      "inputs": [],
      "name": "lastBidId",
      "outputs": [
        {
          "internalType": "uint256",
          "name": "",
          "type": "uint256"
        }
      ],
      "stateMutability": "view",
      "type": "function",
      "constant": true
    },
    {
      "inputs": [],
      "name": "lastTenderId",
      "outputs": [
        {
          "internalType": "uint256",
          "name": "",
          "type": "uint256"
        }
      ],
      "stateMutability": "view",
      "type": "function",
      "constant": true
    },
    {
      "inputs": [
        {
          "internalType": "uint256",
          "name": "",
          "type": "uint256"
        }
      ],
      "name": "tenders",
      "outputs": [
        {
          "internalType": "uint256",
          "name": "tenderId",
          "type": "uint256"
        },
        {
          "internalType": "string",
          "name": "title",
          "type": "string"
        },
        {
          "internalType": "string",
          "name": "description",
          "type": "string"
        },
        {
          "internalType": "string",
          "name": "startDate",
          "type": "string"
        },
        {
          "internalType": "string",
          "name": "endDate",
          "type": "string"
        },
        {
          "internalType": "string",
          "name": "status",
          "type": "string"
        },
        {
          "internalType": "uint256",
          "name": "numBids",
          "type": "uint256"
        }
      ],
      "stateMutability": "view",
      "type": "function",
      "constant": true
    },
    {
      "inputs": [
        {
          "internalType": "string",
          "name": "_title",
          "type": "string"
        },
        {
          "internalType": "string",
          "name": "_description",
          "type": "string"
        },
        {
          "internalType": "string",
          "name": "_startDate",
          "type": "string"
        },
        {
          "internalType": "string",
          "name": "_endDate",
          "type": "string"
        },
        {
          "internalType": "string",
          "name": "_status",
          "type": "string"
        },
        {
          "internalType": "uint256",
          "name": "_numBids",
          "type": "uint256"
        }
      ],
      "name": "setTender",
      "outputs": [],
      "stateMutability": "nonpayable",
      "type": "function"
    },
    {
      "inputs": [
        {
          "internalType": "uint256",
          "name": "_tenderId",
          "type": "uint256"
        },
        {
          "internalType": "string",
          "name": "_title",
          "type": "string"
        },
        {
          "internalType": "string",
          "name": "_description",
          "type": "string"
        },
        {
          "internalType": "uint256",
          "name": "_amount",
          "type": "uint256"
        }
      ],
      "name": "placeBid",
      "outputs": [],
      "stateMutability": "nonpayable",
      "type": "function"
    },
    {
      "inputs": [
        {
          "internalType": "uint256",
          "name": "_tenderId",
          "type": "uint256"
        }
      ],
      "name": "getBidsForTender",
      "outputs": [
        {
          "components": [
            {
              "internalType": "uint256",
              "name": "bidId",
              "type": "uint256"
            },
            {
              "internalType": "uint256",
              "name": "tenderId",
              "type": "uint256"
            },
            {
              "internalType": "string",
              "name": "title",
              "type": "string"
            },
            {
              "internalType": "string",
              "name": "description",
              "type": "string"
            },
            {
              "internalType": "uint256",
              "name": "amount",
              "type": "uint256"
            },
            {
              "internalType": "string",
              "name": "status",
              "type": "string"
            },
            {
              "internalType": "address",
              "name": "bidderAddress",
              "type": "address"
            }
          ],
          "internalType": "struct TenderContract.Bid[]",
          "name": "",
          "type": "tuple[]"
        }
      ],
      "stateMutability": "view",
      "type": "function",
      "constant": true
    },
    {
      "inputs": [
        {
          "internalType": "uint256",
          "name": "_tenderId",
          "type": "uint256"
        },
        {
          "internalType": "address",
          "name": "_userAddress",
          "type": "address"
        }
      ],
      "name": "getBidsForUserOnTender",
      "outputs": [
        {
          "components": [
            {
              "internalType": "uint256",
              "name": "bidId",
              "type": "uint256"
            },
            {
              "internalType": "uint256",
              "name": "tenderId",
              "type": "uint256"
            },
            {
              "internalType": "string",
              "name": "title",
              "type": "string"
            },
            {
              "internalType": "string",
              "name": "description",
              "type": "string"
            },
            {
              "internalType": "uint256",
              "name": "amount",
              "type": "uint256"
            },
            {
              "internalType": "string",
              "name": "status",
              "type": "string"
            },
            {
              "internalType": "address",
              "name": "bidderAddress",
              "type": "address"
            }
          ],
          "internalType": "struct TenderContract.Bid[]",
          "name": "",
          "type": "tuple[]"
        }
      ],
      "stateMutability": "view",
      "type": "function",
      "constant": true
    },
    {
      "inputs": [
        {
          "internalType": "uint256",
          "name": "_bidId",
          "type": "uint256"
        },
        {
          "internalType": "string",
          "name": "status",
          "type": "string"
        }
      ],
      "name": "acceptBid",
      "outputs": [],
      "stateMutability": "nonpayable",
      "type": "function"
    },
    {
      "inputs": [
        {
          "internalType": "uint256",
          "name": "_tenderId",
          "type": "uint256"
        }
      ],
      "name": "getTender",
      "outputs": [
        {
          "components": [
            {
              "internalType": "uint256",
              "name": "tenderId",
              "type": "uint256"
            },
            {
              "internalType": "string",
              "name": "title",
              "type": "string"
            },
            {
              "internalType": "string",
              "name": "description",
              "type": "string"
            },
            {
              "internalType": "string",
              "name": "startDate",
              "type": "string"
            },
            {
              "internalType": "string",
              "name": "endDate",
              "type": "string"
            },
            {
              "internalType": "string",
              "name": "status",
              "type": "string"
            },
            {
              "internalType": "uint256",
              "name": "numBids",
              "type": "uint256"
            }
          ],
          "internalType": "struct TenderContract.Tender",
          "name": "",
          "type": "tuple"
        }
      ],
      "stateMutability": "view",
      "type": "function",
      "constant": true
    },
    {
      "inputs": [],
      "name": "getTenders",
      "outputs": [
        {
          "components": [
            {
              "internalType": "uint256",
              "name": "tenderId",
              "type": "uint256"
            },
            {
              "internalType": "string",
              "name": "title",
              "type": "string"
            },
            {
              "internalType": "string",
              "name": "description",
              "type": "string"
            },
            {
              "internalType": "string",
              "name": "startDate",
              "type": "string"
            },
            {
              "internalType": "string",
              "name": "endDate",
              "type": "string"
            },
            {
              "internalType": "string",
              "name": "status",
              "type": "string"
            },
            {
              "internalType": "uint256",
              "name": "numBids",
              "type": "uint256"
            }
          ],
          "internalType": "struct TenderContract.Tender[]",
          "name": "",
          "type": "tuple[]"
        }
      ],
      "stateMutability": "view",
      "type": "function",
      "constant": true
    },
    {
      "inputs": [],
      "name": "getBids",
      "outputs": [
        {
          "components": [
            {
              "internalType": "uint256",
              "name": "bidId",
              "type": "uint256"
            },
            {
              "internalType": "uint256",
              "name": "tenderId",
              "type": "uint256"
            },
            {
              "internalType": "string",
              "name": "title",
              "type": "string"
            },
            {
              "internalType": "string",
              "name": "description",
              "type": "string"
            },
            {
              "internalType": "uint256",
              "name": "amount",
              "type": "uint256"
            },
            {
              "internalType": "string",
              "name": "status",
              "type": "string"
            },
            {
              "internalType": "address",
              "name": "bidderAddress",
              "type": "address"
            }
          ],
          "internalType": "struct TenderContract.Bid[]",
          "name": "",
          "type": "tuple[]"
        }
      ],
      "stateMutability": "view",
      "type": "function",
      "constant": true
    },
    {
      "inputs": [],
      "name": "getOpenTenders",
      "outputs": [
        {
          "components": [
            {
              "internalType": "uint256",
              "name": "tenderId",
              "type": "uint256"
            },
            {
              "internalType": "string",
              "name": "title",
              "type": "string"
            },
            {
              "internalType": "string",
              "name": "description",
              "type": "string"
            },
            {
              "internalType": "string",
              "name": "startDate",
              "type": "string"
            },
            {
              "internalType": "string",
              "name": "endDate",
              "type": "string"
            },
            {
              "internalType": "string",
              "name": "status",
              "type": "string"
            },
            {
              "internalType": "uint256",
              "name": "numBids",
              "type": "uint256"
            }
          ],
          "internalType": "struct TenderContract.Tender[]",
          "name": "",
          "type": "tuple[]"
        }
      ],
      "stateMutability": "view",
      "type": "function",
      "constant": true
    },
    {
      "inputs": [
        {
          "internalType": "uint256",
          "name": "_tenderId",
          "type": "uint256"
        }
      ],
      "name": "closeTender",
      "outputs": [],
      "stateMutability": "nonpayable",
      "type": "function"
    }
  ],
  "bytecode": "0x60806040526001600055600160025534801561001a57600080fd5b506130588061002a6000396000f3fe608060405234801561001057600080fd5b50600436106100e95760003560e01c806362bdcbeb1161008c578063e63d87bc11610066578063e63d87bc14610268578063eec8d44214610284578063ef78e28b146102a2578063f18ee10b146102c0576100e9565b806362bdcbeb146102105780637b9d10d61461022e578063b81c78ec1461024a576100e9565b8063267b51b3116100c8578063267b51b3146101585780633db4138a146101885780634423c5f1146101a4578063465e1def146101da576100e9565b8062cda3da146100ee5780630585c25e1461010a57806312d0ec801461013a575b600080fd5b61010860048036038101906101039190612139565b6102f0565b005b610124600480360381019061011f9190612139565b6103ac565b60405161013191906122bd565b60405180910390f35b61014261072d565b60405161014f9190612459565b60405180910390f35b610172600480360381019061016d9190612139565b610a7a565b60405161017f9190612628565b60405180910390f35b6101a2600480360381019061019d919061277f565b610db8565b005b6101be60048036038101906101b99190612139565b610f30565b6040516101d19796959493929190612886565b60405180910390f35b6101f460048036038101906101ef9190612139565b61113a565b604051610207979695949392919061290a565b60405180910390f35b610218611434565b604051610225919061299c565b60405180910390f35b610248600480360381019061024391906129b7565b61143a565b005b610252611543565b60405161025f9190612628565b60405180910390f35b610282600480360381019061027d9190612ad0565b6117cc565b005b61028c611854565b6040516102999190612459565b60405180910390f35b6102aa611c9d565b6040516102b7919061299c565b60405180910390f35b6102da60048036038101906102d59190612b58565b611ca3565b6040516102e79190612628565b60405180910390f35b60005b6001805490508110156103a857816001828154811061031557610314612b98565b5b90600052602060002090600702016000015403610395576040518060400160405280600681526020017f436c6f73656400000000000000000000000000000000000000000000000000008152506001828154811061037657610375612b98565b5b906000526020600020906007020160050190816103939190612dd3565b505b80806103a090612ed4565b9150506102f3565b5050565b6103b461205f565b60005b6001805490508110156107265782600182815481106103d9576103d8612b98565b5b90600052602060002090600702016000015403610713576001818154811061040457610403612b98565b5b90600052602060002090600702016040518060e00160405290816000820154815260200160018201805461043790612bf6565b80601f016020809104026020016040519081016040528092919081815260200182805461046390612bf6565b80156104b05780601f10610485576101008083540402835291602001916104b0565b820191906000526020600020905b81548152906001019060200180831161049357829003601f168201915b505050505081526020016002820180546104c990612bf6565b80601f01602080910402602001604051908101604052809291908181526020018280546104f590612bf6565b80156105425780601f1061051757610100808354040283529160200191610542565b820191906000526020600020905b81548152906001019060200180831161052557829003601f168201915b5050505050815260200160038201805461055b90612bf6565b80601f016020809104026020016040519081016040528092919081815260200182805461058790612bf6565b80156105d45780601f106105a9576101008083540402835291602001916105d4565b820191906000526020600020905b8154815290600101906020018083116105b757829003601f168201915b505050505081526020016004820180546105ed90612bf6565b80601f016020809104026020016040519081016040528092919081815260200182805461061990612bf6565b80156106665780601f1061063b57610100808354040283529160200191610666565b820191906000526020600020905b81548152906001019060200180831161064957829003601f168201915b5050505050815260200160058201805461067f90612bf6565b80601f01602080910402602001604051908101604052809291908181526020018280546106ab90612bf6565b80156106f85780601f106106cd576101008083540402835291602001916106f8565b820191906000526020600020905b8154815290600101906020018083116106db57829003601f168201915b50505050508152602001600682015481525050915050610728565b808061071e90612ed4565b9150506103b7565b505b919050565b60606001805480602002602001604051908101604052809291908181526020016000905b82821015610a7157838290600052602060002090600702016040518060e00160405290816000820154815260200160018201805461078e90612bf6565b80601f01602080910402602001604051908101604052809291908181526020018280546107ba90612bf6565b80156108075780601f106107dc57610100808354040283529160200191610807565b820191906000526020600020905b8154815290600101906020018083116107ea57829003601f168201915b5050505050815260200160028201805461082090612bf6565b80601f016020809104026020016040519081016040528092919081815260200182805461084c90612bf6565b80156108995780601f1061086e57610100808354040283529160200191610899565b820191906000526020600020905b81548152906001019060200180831161087c57829003601f168201915b505050505081526020016003820180546108b290612bf6565b80601f01602080910402602001604051908101604052809291908181526020018280546108de90612bf6565b801561092b5780601f106109005761010080835404028352916020019161092b565b820191906000526020600020905b81548152906001019060200180831161090e57829003601f168201915b5050505050815260200160048201805461094490612bf6565b80601f016020809104026020016040519081016040528092919081815260200182805461097090612bf6565b80156109bd5780601f10610992576101008083540402835291602001916109bd565b820191906000526020600020905b8154815290600101906020018083116109a057829003601f168201915b505050505081526020016005820180546109d690612bf6565b80601f0160208091040260200160405190810160405280929190818152602001828054610a0290612bf6565b8015610a4f5780601f10610a2457610100808354040283529160200191610a4f565b820191906000526020600020905b815481529060010190602001808311610a3257829003601f168201915b5050505050815260200160068201548152505081526020019060010190610751565b50505050905090565b6060600060038054905067ffffffffffffffff811115610a9d57610a9c612654565b5b604051908082528060200260200182016040528015610ad657816020015b610ac361209c565b815260200190600190039081610abb5790505b5090506000805b600380549050811015610dad578460038281548110610aff57610afe612b98565b5b90600052602060002090600702016001015403610d9a5760038181548110610b2a57610b29612b98565b5b90600052602060002090600702016040518060e00160405290816000820154815260200160018201548152602001600282018054610b6790612bf6565b80601f0160208091040260200160405190810160405280929190818152602001828054610b9390612bf6565b8015610be05780601f10610bb557610100808354040283529160200191610be0565b820191906000526020600020905b815481529060010190602001808311610bc357829003601f168201915b50505050508152602001600382018054610bf990612bf6565b80601f0160208091040260200160405190810160405280929190818152602001828054610c2590612bf6565b8015610c725780601f10610c4757610100808354040283529160200191610c72565b820191906000526020600020905b815481529060010190602001808311610c5557829003601f168201915b5050505050815260200160048201548152602001600582018054610c9590612bf6565b80601f0160208091040260200160405190810160405280929190818152602001828054610cc190612bf6565b8015610d0e5780601f10610ce357610100808354040283529160200191610d0e565b820191906000526020600020905b815481529060010190602001808311610cf157829003601f168201915b505050505081526020016006820160009054906101000a900473ffffffffffffffffffffffffffffffffffffffff1673ffffffffffffffffffffffffffffffffffffffff1673ffffffffffffffffffffffffffffffffffffffff1681525050838381518110610d8057610d7f612b98565b5b60200260200101819052508180610d9690612ed4565b9250505b8080610da590612ed4565b915050610add565b508192505050919050565b60006040518060e0016040528060025481526020018681526020018581526020018481526020018381526020016040518060400160405280600781526020017f50656e64696e670000000000000000000000000000000000000000000000000081525081526020013373ffffffffffffffffffffffffffffffffffffffff168152509050600381908060018154018082558091505060019003906000526020600020906007020160009091909190915060008201518160000155602082015181600101556040820151816002019081610e919190612dd3565b506060820151816003019081610ea79190612dd3565b506080820151816004015560a0820151816005019081610ec79190612dd3565b5060c08201518160060160006101000a81548173ffffffffffffffffffffffffffffffffffffffff021916908373ffffffffffffffffffffffffffffffffffffffff160217905550505060026000815480929190610f2490612ed4565b91905055505050505050565b60038181548110610f4057600080fd5b9060005260206000209060070201600091509050806000015490806001015490806002018054610f6f90612bf6565b80601f0160208091040260200160405190810160405280929190818152602001828054610f9b90612bf6565b8015610fe85780601f10610fbd57610100808354040283529160200191610fe8565b820191906000526020600020905b815481529060010190602001808311610fcb57829003601f168201915b505050505090806003018054610ffd90612bf6565b80601f016020809104026020016040519081016040528092919081815260200182805461102990612bf6565b80156110765780601f1061104b57610100808354040283529160200191611076565b820191906000526020600020905b81548152906001019060200180831161105957829003601f168201915b50505050509080600401549080600501805461109190612bf6565b80601f01602080910402602001604051908101604052809291908181526020018280546110bd90612bf6565b801561110a5780601f106110df5761010080835404028352916020019161110a565b820191906000526020600020905b8154815290600101906020018083116110ed57829003601f168201915b5050505050908060060160009054906101000a900473ffffffffffffffffffffffffffffffffffffffff16905087565b6001818154811061114a57600080fd5b906000526020600020906007020160009150905080600001549080600101805461117390612bf6565b80601f016020809104026020016040519081016040528092919081815260200182805461119f90612bf6565b80156111ec5780601f106111c1576101008083540402835291602001916111ec565b820191906000526020600020905b8154815290600101906020018083116111cf57829003601f168201915b50505050509080600201805461120190612bf6565b80601f016020809104026020016040519081016040528092919081815260200182805461122d90612bf6565b801561127a5780601f1061124f5761010080835404028352916020019161127a565b820191906000526020600020905b81548152906001019060200180831161125d57829003601f168201915b50505050509080600301805461128f90612bf6565b80601f01602080910402602001604051908101604052809291908181526020018280546112bb90612bf6565b80156113085780601f106112dd57610100808354040283529160200191611308565b820191906000526020600020905b8154815290600101906020018083116112eb57829003601f168201915b50505050509080600401805461131d90612bf6565b80601f016020809104026020016040519081016040528092919081815260200182805461134990612bf6565b80156113965780601f1061136b57610100808354040283529160200191611396565b820191906000526020600020905b81548152906001019060200180831161137957829003601f168201915b5050505050908060050180546113ab90612bf6565b80601f01602080910402602001604051908101604052809291908181526020018280546113d790612bf6565b80156114245780601f106113f957610100808354040283529160200191611424565b820191906000526020600020905b81548152906001019060200180831161140757829003601f168201915b5050505050908060060154905087565b60005481565b60006040518060e00160405280600054815260200188815260200187815260200186815260200185815260200184815260200183815250905060018190806001815401808255809150506001900390600052602060002090600702016000909190919091506000820151816000015560208201518160010190816114be9190612dd3565b5060408201518160020190816114d49190612dd3565b5060608201518160030190816114ea9190612dd3565b5060808201518160040190816115009190612dd3565b5060a08201518160050190816115169190612dd3565b5060c08201518160060155505060008081548092919061153590612ed4565b919050555050505050505050565b60606003805480602002602001604051908101604052809291908181526020016000905b828210156117c357838290600052602060002090600702016040518060e001604052908160008201548152602001600182015481526020016002820180546115ae90612bf6565b80601f01602080910402602001604051908101604052809291908181526020018280546115da90612bf6565b80156116275780601f106115fc57610100808354040283529160200191611627565b820191906000526020600020905b81548152906001019060200180831161160a57829003601f168201915b5050505050815260200160038201805461164090612bf6565b80601f016020809104026020016040519081016040528092919081815260200182805461166c90612bf6565b80156116b95780601f1061168e576101008083540402835291602001916116b9565b820191906000526020600020905b81548152906001019060200180831161169c57829003601f168201915b50505050508152602001600482015481526020016005820180546116dc90612bf6565b80601f016020809104026020016040519081016040528092919081815260200182805461170890612bf6565b80156117555780601f1061172a57610100808354040283529160200191611755565b820191906000526020600020905b81548152906001019060200180831161173857829003601f168201915b505050505081526020016006820160009054906101000a900473ffffffffffffffffffffffffffffffffffffffff1673ffffffffffffffffffffffffffffffffffffffff1673ffffffffffffffffffffffffffffffffffffffff168152505081526020019060010190611567565b50505050905090565b60005b60038054905081101561184f5782600382815481106117f1576117f0612b98565b5b9060005260206000209060070201600001540361183c57816003828154811061181d5761181c612b98565b5b9060005260206000209060070201600501908161183a9190612dd3565b505b808061184790612ed4565b9150506117cf565b505050565b6060600060018054905067ffffffffffffffff81111561187757611876612654565b5b6040519080825280602002602001820160405280156118b057816020015b61189d61205f565b8152602001906001900390816118955790505b5090506000805b600180549050811015611c94576040516020016118d390612f73565b60405160208183030381529060405280519060200120600182815481106118fd576118fc612b98565b5b906000526020600020906007020160050160405160200161191e919061300b565b6040516020818303038152906040528051906020012003611c81576001818154811061194d5761194c612b98565b5b90600052602060002090600702016040518060e00160405290816000820154815260200160018201805461198090612bf6565b80601f01602080910402602001604051908101604052809291908181526020018280546119ac90612bf6565b80156119f95780601f106119ce576101008083540402835291602001916119f9565b820191906000526020600020905b8154815290600101906020018083116119dc57829003601f168201915b50505050508152602001600282018054611a1290612bf6565b80601f0160208091040260200160405190810160405280929190818152602001828054611a3e90612bf6565b8015611a8b5780601f10611a6057610100808354040283529160200191611a8b565b820191906000526020600020905b815481529060010190602001808311611a6e57829003601f168201915b50505050508152602001600382018054611aa490612bf6565b80601f0160208091040260200160405190810160405280929190818152602001828054611ad090612bf6565b8015611b1d5780601f10611af257610100808354040283529160200191611b1d565b820191906000526020600020905b815481529060010190602001808311611b0057829003601f168201915b50505050508152602001600482018054611b3690612bf6565b80601f0160208091040260200160405190810160405280929190818152602001828054611b6290612bf6565b8015611baf5780601f10611b8457610100808354040283529160200191611baf565b820191906000526020600020905b815481529060010190602001808311611b9257829003601f168201915b50505050508152602001600582018054611bc890612bf6565b80601f0160208091040260200160405190810160405280929190818152602001828054611bf490612bf6565b8015611c415780601f10611c1657610100808354040283529160200191611c41565b820191906000526020600020905b815481529060010190602001808311611c2457829003601f168201915b50505050508152602001600682015481525050838381518110611c6757611c66612b98565b5b60200260200101819052508180611c7d90612ed4565b9250505b8080611c8c90612ed4565b9150506118b7565b50819250505090565b60025481565b6060600060038054905067ffffffffffffffff811115611cc657611cc5612654565b5b604051908082528060200260200182016040528015611cff57816020015b611cec61209c565b815260200190600190039081611ce45790505b5090506000805b600380549050811015612053578560038281548110611d2857611d27612b98565b5b906000526020600020906007020160010154148015611db757508473ffffffffffffffffffffffffffffffffffffffff1660038281548110611d6d57611d6c612b98565b5b906000526020600020906007020160060160009054906101000a900473ffffffffffffffffffffffffffffffffffffffff1673ffffffffffffffffffffffffffffffffffffffff16145b156120405760038181548110611dd057611dcf612b98565b5b90600052602060002090600702016040518060e00160405290816000820154815260200160018201548152602001600282018054611e0d90612bf6565b80601f0160208091040260200160405190810160405280929190818152602001828054611e3990612bf6565b8015611e865780601f10611e5b57610100808354040283529160200191611e86565b820191906000526020600020905b815481529060010190602001808311611e6957829003601f168201915b50505050508152602001600382018054611e9f90612bf6565b80601f0160208091040260200160405190810160405280929190818152602001828054611ecb90612bf6565b8015611f185780601f10611eed57610100808354040283529160200191611f18565b820191906000526020600020905b815481529060010190602001808311611efb57829003601f168201915b5050505050815260200160048201548152602001600582018054611f3b90612bf6565b80601f0160208091040260200160405190810160405280929190818152602001828054611f6790612bf6565b8015611fb45780601f10611f8957610100808354040283529160200191611fb4565b820191906000526020600020905b815481529060010190602001808311611f9757829003601f168201915b505050505081526020016006820160009054906101000a900473ffffffffffffffffffffffffffffffffffffffff1673ffffffffffffffffffffffffffffffffffffffff1673ffffffffffffffffffffffffffffffffffffffff168152505083838151811061202657612025612b98565b5b6020026020010181905250818061203c90612ed4565b9250505b808061204b90612ed4565b915050611d06565b50819250505092915050565b6040518060e00160405280600081526020016060815260200160608152602001606081526020016060815260200160608152602001600081525090565b6040518060e00160405280600081526020016000815260200160608152602001606081526020016000815260200160608152602001600073ffffffffffffffffffffffffffffffffffffffff1681525090565b6000604051905090565b600080fd5b600080fd5b6000819050919050565b61211681612103565b811461212157600080fd5b50565b6000813590506121338161210d565b92915050565b60006020828403121561214f5761214e6120f9565b5b600061215d84828501612124565b91505092915050565b61216f81612103565b82525050565b600081519050919050565b600082825260208201905092915050565b60005b838110156121af578082015181840152602081019050612194565b60008484015250505050565b6000601f19601f8301169050919050565b60006121d782612175565b6121e18185612180565b93506121f1818560208601612191565b6121fa816121bb565b840191505092915050565b600060e08301600083015161221d6000860182612166565b506020830151848203602086015261223582826121cc565b9150506040830151848203604086015261224f82826121cc565b9150506060830151848203606086015261226982826121cc565b9150506080830151848203608086015261228382826121cc565b91505060a083015184820360a086015261229d82826121cc565b91505060c08301516122b260c0860182612166565b508091505092915050565b600060208201905081810360008301526122d78184612205565b905092915050565b600081519050919050565b600082825260208201905092915050565b6000819050602082019050919050565b600060e0830160008301516123236000860182612166565b506020830151848203602086015261233b82826121cc565b9150506040830151848203604086015261235582826121cc565b9150506060830151848203606086015261236f82826121cc565b9150506080830151848203608086015261238982826121cc565b91505060a083015184820360a08601526123a382826121cc565b91505060c08301516123b860c0860182612166565b508091505092915050565b60006123cf838361230b565b905092915050565b6000602082019050919050565b60006123ef826122df565b6123f981856122ea565b93508360208202850161240b856122fb565b8060005b85811015612447578484038952815161242885826123c3565b9450612433836123d7565b925060208a0199505060018101905061240f565b50829750879550505050505092915050565b6000602082019050818103600083015261247381846123e4565b905092915050565b600081519050919050565b600082825260208201905092915050565b6000819050602082019050919050565b600073ffffffffffffffffffffffffffffffffffffffff82169050919050565b60006124d2826124a7565b9050919050565b6124e2816124c7565b82525050565b600060e0830160008301516125006000860182612166565b5060208301516125136020860182612166565b506040830151848203604086015261252b82826121cc565b9150506060830151848203606086015261254582826121cc565b915050608083015161255a6080860182612166565b5060a083015184820360a086015261257282826121cc565b91505060c083015161258760c08601826124d9565b508091505092915050565b600061259e83836124e8565b905092915050565b6000602082019050919050565b60006125be8261247b565b6125c88185612486565b9350836020820285016125da85612497565b8060005b8581101561261657848403895281516125f78582612592565b9450612602836125a6565b925060208a019950506001810190506125de565b50829750879550505050505092915050565b6000602082019050818103600083015261264281846125b3565b905092915050565b600080fd5b600080fd5b7f4e487b7100000000000000000000000000000000000000000000000000000000600052604160045260246000fd5b61268c826121bb565b810181811067ffffffffffffffff821117156126ab576126aa612654565b5b80604052505050565b60006126be6120ef565b90506126ca8282612683565b919050565b600067ffffffffffffffff8211156126ea576126e9612654565b5b6126f3826121bb565b9050602081019050919050565b82818337600083830152505050565b600061272261271d846126cf565b6126b4565b90508281526020810184848401111561273e5761273d61264f565b5b612749848285612700565b509392505050565b600082601f8301126127665761276561264a565b5b813561277684826020860161270f565b91505092915050565b60008060008060808587031215612799576127986120f9565b5b60006127a787828801612124565b945050602085013567ffffffffffffffff8111156127c8576127c76120fe565b5b6127d487828801612751565b935050604085013567ffffffffffffffff8111156127f5576127f46120fe565b5b61280187828801612751565b925050606061281287828801612124565b91505092959194509250565b61282781612103565b82525050565b600082825260208201905092915050565b600061284982612175565b612853818561282d565b9350612863818560208601612191565b61286c816121bb565b840191505092915050565b612880816124c7565b82525050565b600060e08201905061289b600083018a61281e565b6128a8602083018961281e565b81810360408301526128ba818861283e565b905081810360608301526128ce818761283e565b90506128dd608083018661281e565b81810360a08301526128ef818561283e565b90506128fe60c0830184612877565b98975050505050505050565b600060e08201905061291f600083018a61281e565b8181036020830152612931818961283e565b90508181036040830152612945818861283e565b90508181036060830152612959818761283e565b9050818103608083015261296d818661283e565b905081810360a0830152612981818561283e565b905061299060c083018461281e565b98975050505050505050565b60006020820190506129b1600083018461281e565b92915050565b60008060008060008060c087890312156129d4576129d36120f9565b5b600087013567ffffffffffffffff8111156129f2576129f16120fe565b5b6129fe89828a01612751565b965050602087013567ffffffffffffffff811115612a1f57612a1e6120fe565b5b612a2b89828a01612751565b955050604087013567ffffffffffffffff811115612a4c57612a4b6120fe565b5b612a5889828a01612751565b945050606087013567ffffffffffffffff811115612a7957612a786120fe565b5b612a8589828a01612751565b935050608087013567ffffffffffffffff811115612aa657612aa56120fe565b5b612ab289828a01612751565b92505060a0612ac389828a01612124565b9150509295509295509295565b60008060408385031215612ae757612ae66120f9565b5b6000612af585828601612124565b925050602083013567ffffffffffffffff811115612b1657612b156120fe565b5b612b2285828601612751565b9150509250929050565b612b35816124c7565b8114612b4057600080fd5b50565b600081359050612b5281612b2c565b92915050565b60008060408385031215612b6f57612b6e6120f9565b5b6000612b7d85828601612124565b9250506020612b8e85828601612b43565b9150509250929050565b7f4e487b7100000000000000000000000000000000000000000000000000000000600052603260045260246000fd5b7f4e487b7100000000000000000000000000000000000000000000000000000000600052602260045260246000fd5b60006002820490506001821680612c0e57607f821691505b602082108103612c2157612c20612bc7565b5b50919050565b60008190508160005260206000209050919050565b60006020601f8301049050919050565b600082821b905092915050565b600060088302612c897fffffffffffffffffffffffffffffffffffffffffffffffffffffffffffffffff82612c4c565b612c938683612c4c565b95508019841693508086168417925050509392505050565b6000819050919050565b6000612cd0612ccb612cc684612103565b612cab565b612103565b9050919050565b6000819050919050565b612cea83612cb5565b612cfe612cf682612cd7565b848454612c59565b825550505050565b600090565b612d13612d06565b612d1e818484612ce1565b505050565b5b81811015612d4257612d37600082612d0b565b600181019050612d24565b5050565b601f821115612d8757612d5881612c27565b612d6184612c3c565b81016020851015612d70578190505b612d84612d7c85612c3c565b830182612d23565b50505b505050565b600082821c905092915050565b6000612daa60001984600802612d8c565b1980831691505092915050565b6000612dc38383612d99565b9150826002028217905092915050565b612ddc82612175565b67ffffffffffffffff811115612df557612df4612654565b5b612dff8254612bf6565b612e0a828285612d46565b600060209050601f831160018114612e3d5760008415612e2b578287015190505b612e358582612db7565b865550612e9d565b601f198416612e4b86612c27565b60005b82811015612e7357848901518255600182019150602085019450602081019050612e4e565b86831015612e905784890151612e8c601f891682612d99565b8355505b6001600288020188555050505b505050505050565b7f4e487b7100000000000000000000000000000000000000000000000000000000600052601160045260246000fd5b6000612edf82612103565b91507fffffffffffffffffffffffffffffffffffffffffffffffffffffffffffffffff8203612f1157612f10612ea5565b5b600182019050919050565b600081905092915050565b7f4f70656e00000000000000000000000000000000000000000000000000000000600082015250565b6000612f5d600483612f1c565b9150612f6882612f27565b600482019050919050565b6000612f7e82612f50565b9150819050919050565b60008154612f9581612bf6565b612f9f8186612f1c565b94506001821660008114612fba5760018114612fcf57613002565b60ff1983168652811515820286019350613002565b612fd885612c27565b60005b83811015612ffa57815481890152600182019150602081019050612fdb565b838801955050505b50505092915050565b60006130178284612f88565b91508190509291505056fea26469706673582212202cef96d41c312b62a1cc5f816dd962407af7de1845d528d67231675a49cdb62964736f6c63430008110033",
  "immutableReferences": {},
  "source": "// SPDX-License-Identifier: MIT\r\npragma solidity >=0.5.0 <0.9.0;\r\n\r\ncontract TenderContract {\r\n    //call this function to set dummy tender for testing\r\n\r\n    struct Tender {\r\n        uint tenderId;\r\n        string title;\r\n        string description;\r\n        string startDate;\r\n        string endDate;\r\n        string status;\r\n        uint256 numBids;\r\n    }\r\n\r\n    struct Bid {\r\n        uint bidId;\r\n        uint tenderId;\r\n        string title;\r\n        string description;\r\n        uint256 amount;\r\n        string status;\r\n        address bidderAddress;\r\n    }\r\n\r\n    //define tender map and populate with dummy tender\r\n    uint public lastTenderId = 1;\r\n    Tender[] public tenders;\r\n\r\n    uint public lastBidId = 1;\r\n    Bid[] public bids;\r\n\r\n    // mapping (address => Tender[]) tenders;\r\n\r\n    // mapping (address => Tender[]) tenders;\r\n\r\n    function setTender(\r\n        string memory _title,\r\n        string memory _description,\r\n        string memory _startDate,\r\n        string memory _endDate,\r\n        string memory _status,\r\n        uint256 _numBids\r\n    ) public {\r\n        Tender memory newTender = Tender(\r\n            lastTenderId,\r\n            _title,\r\n            _description,\r\n            _startDate,\r\n            _endDate,\r\n            _status,\r\n            _numBids\r\n        );\r\n\r\n        tenders.push(newTender);\r\n        lastTenderId++;\r\n    }\r\n\r\n    function placeBid(\r\n        uint _tenderId,\r\n        string memory _title,\r\n        string memory _description,\r\n        uint256 _amount\r\n    ) public {\r\n        Bid memory newBid = Bid(\r\n            lastBidId,\r\n            _tenderId,\r\n            _title,\r\n            _description,\r\n            _amount,\r\n            \"Pending\",\r\n            msg.sender\r\n        );\r\n        bids.push(newBid);\r\n        lastBidId++;\r\n    }\r\n\r\n    //get tender bids\r\n    function getBidsForTender(\r\n        uint _tenderId\r\n    ) public view returns (Bid[] memory) {\r\n        Bid[] memory tenderBids = new Bid[](bids.length);\r\n        uint256 tenderBidCount = 0;\r\n\r\n        for (uint i = 0; i < bids.length; i++) {\r\n            if (bids[i].tenderId == _tenderId) {\r\n                tenderBids[tenderBidCount] = bids[i];\r\n                tenderBidCount++;\r\n            }\r\n        }\r\n\r\n        return tenderBids;\r\n    }\r\n    //get bids for user on a tender\r\n    function getBidsForUserOnTender(\r\n        uint _tenderId,\r\n        address _userAddress\r\n    ) public view returns (Bid[] memory) {\r\n        Bid[] memory tenderBids = new Bid[](bids.length);\r\n        uint256 tenderBidCount = 0;\r\n\r\n        for (uint i = 0; i < bids.length; i++) {\r\n            if (\r\n                bids[i].tenderId == _tenderId &&\r\n                bids[i].bidderAddress == _userAddress\r\n            ) {\r\n                tenderBids[tenderBidCount] = bids[i];\r\n                tenderBidCount++;\r\n            }\r\n        }\r\n\r\n        return tenderBids;\r\n    }\r\n\r\n    //accept bid\r\n    function acceptBid(uint _bidId, string memory status) public {\r\n        for (uint i = 0; i < bids.length; i++) {\r\n            if (bids[i].bidId == _bidId) {\r\n                bids[i].status = status;\r\n            }\r\n        }\r\n    }\r\n    //get sinlge tender\r\n    function getTender(uint _tenderId) public view returns (Tender memory) {\r\n        for (uint i = 0; i < tenders.length; i++) {\r\n            if (tenders[i].tenderId == _tenderId) {\r\n                return tenders[i];\r\n            }\r\n        }\r\n    }\r\n\r\n    function getTenders() public view returns (Tender[] memory) {\r\n        return tenders;\r\n    }\r\n    function getBids() public view returns (Bid[] memory) {\r\n        return bids;\r\n    }\r\n\r\n    //get only open tenders\r\n    function getOpenTenders() public view returns (Tender[] memory) {\r\n        Tender[] memory openTenders = new Tender[](tenders.length);\r\n        uint256 openTenderCount = 0;\r\n\r\n        for (uint i = 0; i < tenders.length; i++) {\r\n            if (\r\n                keccak256(abi.encodePacked(tenders[i].status)) ==\r\n                keccak256(abi.encodePacked(\"Open\"))\r\n            ) {\r\n                openTenders[openTenderCount] = tenders[i];\r\n                openTenderCount++;\r\n            }\r\n        }\r\n\r\n        return openTenders;\r\n    }\r\n\r\n    // function updateTender(\r\n    //     uint256 _index,\r\n    //     string memory _title,\r\n    //     string memory _description,\r\n    //     string memory _startDate,\r\n    //     string memory _endDate,\r\n    //     string memory _status,\r\n    //     uint256 _numBids\r\n    // ) public {\r\n    //     tenders[msg.sender][_index].title = _title;\r\n    //     tenders[msg.sender][_index].description = _description;\r\n    //     tenders[msg.sender][_index].startDate = _startDate;\r\n    //     tenders[msg.sender][_index].endDate = _endDate;\r\n    //     tenders[msg.sender][_index].status = _status;\r\n    //     tenders[msg.sender][_index].numBids = _numBids;\r\n    // }\r\n\r\n    function closeTender(uint _tenderId) public {\r\n        for (uint i = 0; i < tenders.length; i++) {\r\n            if (tenders[i].tenderId == _tenderId) {\r\n                tenders[i].status = \"Closed\";\r\n            }\r\n        }\r\n    }\r\n}\r\n",
  "sourcePath": "C:\\Users\\tapiw\\OneDrive\\Documents\\SchoolProjects\\Hit\\tenderNew\\contracts\\TenderContract.sol",
  "compiler": {
    "name": "solc",
    "version": "0.8.17+commit.8df45f5f.Emscripten.clang"
  },
  "schemaVersion": "3.4.13",
  "updatedAt": "2023-04-20T09:28:32.480Z",
  "networkType": "ethereum",
  "devdoc": {
    "kind": "dev",
    "methods": {},
    "version": 1
  },
  "userdoc": {
    "kind": "user",
    "methods": {},
    "version": 1
  }
}